:03000000020026D5
:0C002600787FE4F6D8FD7581C002006D03
:100191001203C84005C2911203981203604005C2C0
:1001A100901203981203211203A61202B3EF7005F5
:0601B10012038A80FB220C
:1000B20012000E50531202448F13120210E5130461
:1000C200602514B4070050409000D1F8282873022C
:1000D20000E60200EC0200F20200F80200FB02005D
:1000E200FE0201040203AD02001E12015A0203B90C
:1000F2001202440203420203B30203BE12015A0275
:0801020003C312024412035171
:01010A0022D2
:1001F300E4F510F511F512A282B39290A285B392A1
:0D02030091A2A6B392921200B2051280EAF9
:080003001201911201F380FECD
:0A0310000216000002180000C1846C
:1001B700E4FDFCC3ED9FEC9E5013B280B283B28680
:0D01C700B280B283B2860DBD00010C80E64F
:0101D4002208
:0703A600D282D285D2A6220B
:1002B3002081037F01222084037F02222087037F82
:0502C30003227F04226C
:10022C001203A62082037F01222085037F02222055
:08023C00A6037F03227F0022CC
:10015A00E4F514F515FDFC120244EF3395E0F514AD
:10016A008F15120244EF3395E0AD077514007C0039
:10017A00E515F514EDF515E514FF120210AF151289
:06018A000210AE14AF15D7
:01019000224C
:0E036000120271500122120287500122C322A4
:1003320012036E5009747C64014403700122C322CB
:10025B0012036E500512037C4002C322120271126C
:06026B000287D204D32239
:10027100D280D281D282438901E4F58CF58AD2AF52
:06028100D2A9C28CC322C9
:0E036E0030A50530A402D322C28CC204C322E3
:0F034200EF7004D2818005BF0102C28102021058
:0603AD00300402D28C2294
:05001E00C28CD2962205
:0503B9008E168F1722D3
:03000B000202EE00
:1002EE00C0E0E516F58CE517F58AB280B296D0E03F
:0102FE0032CD
:10028700D283D284D285438910E4F58DF58BD2AF22
:06029700D2ABC28EC322AF
:0E037C0030A30530A202D322C28EC204C322D7
:0F035100EF7004D2848005BF0102C28402021043
:0603B300300402D28E228C
:0503BE00C28ED297225F
:0503C3008E188F1922C5
:03001B000202FFDF
:1002FF00C0E0E518F58DE519F58BB283B297D0E024
:01030F0032BB
:02031A00C10020
:0300230002010BCC
:07010B00C0E0C0D075D00870
:10011200309822AF99C298E51A2450FDE433FCE5E9
:100122001C6D7001EC600EAE1C051CEE544F2421B8
:10013200F8A60FD20130991BC299E51B651D60110B
:10014200AF1B051BEF544F2471F8E6F599C20380EB
:0301520002C202E4
:05015500D0D0D0E03223
:10024400E51C651A60FAC2ACAF1A051AEF544F24C4
:0602540021F8E6FFD2AC28
:01025A002281
:10021000200318200205D2028F9922C2ACAE1D0520
:0C0220001DEE544F2471F8A607D2AC224A
:09000E00E51CB51A02C322D3223D
:10029D00AD07BD0A082003FD7F0D1202102003FDDE
:0602AD00AF051202102251
:1001D500E4F51AF51CF51BF51DC203C20275C834FA
:0E01E50075CAC575CBFF759850D2AFD2AC224B
:0503C8001201D5C32263
:04031C00021E0000BD
:1002DC00E4FDFCC3ED9FEC9E50070DBD00010C80AE
:0102EC00F21F
:0102ED0022EE
:10032100D290D291D292D293D294D295D296D297A0
:0103310022A9
:0E038A00C28C7F107E271202DCB297B2A7222F
:1002C800E51F451E70057F88120210051FE51F7087
:0302D80002051EFE
:0102DB002200
:0E039800C2A77F307E751202DCD2A70202DC03
:10003200020003E493A3F8E493A34003F68001F2E1
:1000420008DFF48029E493A3F85407240CC8C333CF
:10005200C4540F4420C8834004F456800146F6DF9E
:10006200E4800B0102040810204080900310E47E1B
:10007200019360BCA3FF543F30E509541FFEE49393
:10008200A360010ECF54C025E060A840B8E493A35A
:10009200FAE493A3F8E493A3C8C582C8CAC583CA85
:1000A200F0A3C8C582C8CAC583CADFE9DEE780BE3D
:0103200000DC
:00000001FF
