:0300000002000EED
:0C000E00787FE4F6D8FD75812202001E08
:1002C6003F065B4F666D7D077F6F777C395E797180
:0902D600400706050403020100C3
:1002A600D3EF9400EE6480948040147D7B7C00ED57
:0F02B6001D70011CED4C70F7EF1F70E41E80E10E
:0102C5002216
:0601F9008B128A13891429
:1001FF00E4F515F51674D72516F58274023515F545
:10020F0083E493F5A07F017E001202A6AB12AA131E
:10021F00A914851682851583120141FF3395E0FEDF
:10022F0074C62FF58274023EF583E493F5807F0147
:10023F007E001202A6E4F5800516E516700205157C
:0B024F00D39407E5156480948040AA5A
:01025A002281
:10001E00E4FBFAF50CF50D758901758C4C758AD0DB
:10002E00758D4C758BD0D2AFD2ABD28ED2A9D28C6D
:10003E00C2B2C3E51A9415E51964809480400AE4AF
:10004E00F519F51A0BBB00010AC3E5189401E51763
:10005E0064809480401CE4F517F5180511E51170C5
:10006E000205109403E510648094804005E4F510B9
:10007E00F511AE0CAF0D7C007D0A12016EC3E50DBD
:10008E009DFFE50C9CFE7C007D0A12016E8F1BAE5F
:10009E000CAF0D7C007D0A12016E8D1C751D107C3F
:1000AE00007D0AAF03AE0212016EC3EB9DFFEA9C08
:1000BE00FE7C007D0A12016E8F1E7C007D0AAF034E
:1000CE00AE0212016E8D1F752010752110850F2244
:1000DE00C3EB943CEA64809480400BE4FAFB050D7C
:1000EE00E50D7002050CC3E50D943CE50C6480949F
:1000FE00804005E4F50CF50D7C007D02AF03AE02E9
:10010E0012016EED64014C7002D2B4ED4C7002C25D
:10011E00B420B50D30B502D2B5050FE50F7002054E
:10012E000EE50F6409450E6003020040F50EF50F53
:03013E000200407C
:03000B0002025B93
:10025B00C0E0C083C082C0D075D000C000C001C058
:10026B0002C003C004C005C006C007758C4C758A5C
:10027B00D07B007A00791B1201F9051AE51A70027E
:10028B000519D007D006D005D004D003D002D00179
:0B029B00D000D0D0D082D083D0E03261
:03001B000202DFFF
:1002DF00C0E0758D4C758DD00518E51870020517A7
:0302EF00D0E0322A
:10014100BB010CE58229F582E5833AF583E0225073
:1001510006E92582F8E622BBFE06E92582F8E222BD
:0D016100E58229F582E5833AF583E49322D7
:10016E00C2D5EC30E709B2D5E4C39DFDE49CFCEEAC
:10017E0030E715B2D5E4C39FFFE49EFE1201A4C37F
:10018E00E49DFDE49CFC80031201A430D507C3E47A
:06019E009FFFE49EFE221B
:1001A400BC000BBE0029EF8DF084FFADF022E4CC3F
:1001B400F875F008EF2FFFEE33FEEC33FCEE9DEC08
:1001C400984005FCEE9DFE0FD5F0E9E4CEFD22ED4E
:1001D400F8F5F0EE8420D21CFEADF075F008EF2F98
:1001E400FFED33FD4007985006D5F0F222C398FD89
:0501F4000FD5F0EA2226
:00000001FF
