:0300000002008774
:0C008700787FE4F6D8FD75810F020006BA
:100076003F065B4F666D7D077F6F777C395E7971D2
:010086004039
:10000600758901D2AFD2A9D28C758C4C758AD0E491
:10001600F508F50920B5FD7F0A7E0012004320B5DC
:10002600F30509E50970020508640A45087004F538
:0D00360008F509E50990007693F58080D764
:0300030002006395
:10006300C0E0758C4C758AD0050FE50F7002050E44
:03007300D0E032A8
:10004300D3EF9400EE6480948040147D7B7C00EDBC
:0F0053001D70011CED4C70F7EF1F70E41E80E173
:01006200227B
:00000001FF
