:030000000202C831
:0C02C800787FE4F6D8FD7581300202DE7C
:10020B003F065B4F666D7D077F6F777C395E79713B
:09021B004008090A0B0C0D0E0F3E
:0A02D400EF1F70011E144E70F72298
:10000600AD07AC060DBD00010CED1D70011C144CB6
:0C00160060097FE87E031202D480EE2215
:10026A00D3EF9400EE648094804007EF1F70F11E74
:03027A0080EE22F1
:040026008E1C8F1D80
:10002A00E4FBAE1CAF1D7C007D0A1200F8AA05AEE7
:10003A001CAF1D7C007D0A1200F88E1C8F1DEBFF81
:10004A003395E0FE741C2FF58274023EF583E49327
:10005A00FFE5A054F8FEEF4EF5A0AF02EF3395E0AE
:10006A00FE740B2FF58274023EF583E493F5807FCC
:10007A00647E0012026AE4F580E51D451C60040BEB
:06008A00BB089F43A00724
:01009000224D
:0100220022BB
:0F029F0012019E8F1E12027DAF1E7E00020026EE
:0802DE001202E612029F80FBF0
:040091008E108F112D
:100095007514037515E8E4F512F513C3E513951109
:1000A500E5106480F8E5126480985046D2B7D2B660
:1000B500C2B5C2B4AF15AE1412026AC2B7D2B6D277
:1000C500B5C2B4AF15AE1412026AC2B7C2B6D2B584
:1000D500D2B4AF15AE1412026AD2B7C2B6C2B5D247
:1000E500B4AF15AE1412026A0513E51370AD05120F
:0200F50080A9E0
:0100F70022E6
:100224008E1A8F1BD2B71202D4C2B7C37410951B97
:09023400FF7427951AFE0202D4A2
:10019E007580FFC2B67F057E0012026AC2B47F056B
:1001AE007E0012026AD2B47F647E0012026AC2B569
:1001BE007F327E0012026A85801FD2B5D2B6AF1F83
:0101CE00220E
:10027D00C2B08F90C2B17F0A7E0012026AD2B0D294
:02028D00B1229C
:0C02AE007F017E027D89DDFEDEFADFF6B6
:0102BA002221
:10028F00758911D2AFD2A9D288D2A8C28CD2B2228C
:0102E90022F2
:030003000202BB3B
:0D02BB0020B20330B2FD30B20320B2FD329C
:0300230002014D8A
:07014D00C0E0C0D075D0082E
:10015400309824AF99C298D2A7E5162408FDE43359
:10016400FCE5186D7001EC600EAE180518EE54072E
:100174002421F8A60FD20030991BC299E5176519FE
:100184006011AF170517EF54072429F8E6F599C253
:05019400028002C2011F
:05019900D0D0D0E032DF
:10023D00E518651660FAC2ACAF160516EF54072423
:06024D0021F8E6FFD2AC2F
:010253002288
:1001EF00200218200105D2018F9922C2ACAE190549
:0C01FF0019EE54072429F8A607D2AC2200
:10025400AD07BD0A082002FD7F0D1201EF2002FD4B
:06026400AF051201EF22BC
:1001CF00E4F516F518F517F519C202C20143892097
:1001DF00759850758DF3758BF3D2AFD2ACD28E224A
:0302E6000201CF43
:1000F800BC000BBE0029EF8DF084FFADF022E4CCEC
:10010800F875F008EF2FFFEE33FEEC33FCEE9DECB4
:10011800984005FCEE9DFE0FD5F0E9E4CEFD22EDFA
:10012800F8F5F0EE8420D21CFEADF075F008EF2F44
:10013800FFED33FD4007985006D5F0F222C398FD35
:050148000FD5F0EA22D2
:00000001FF
